:100000000C9446000C9465000C9465000C946500FB
:100010000C9465000C9465000C9465000C946500CC
:100020000C9465000C9465000C9465000C946500BC
:100030000C9465000C9431010C9465000C946500DF
:100040000C9465000C9465000C9465000C9465009C
:100050000C9465000C9465000C9465000C9465008C
:100060000C9465000C9465000C9465000C9465007C
:100070000C9465000C9465000C9465000C9465006C
:100080000C9465000C9465000C94650011241FBE4F
:10009000CFEFD0E4DEBFCDBF11E0A0E0B1E0E2ECF5
:1000A000F3E000E00BBF02C007900D92A231B10750
:1000B000D9F711E0A2E1B1E001C01D92AF31B10763
:1000C000E1F70E9491010C94DF010C940000CF93A2
:1000D000C82F8A3019F48DE00E9467009091C0000B
:1000E00095FFFCCFC093C60080E090E0CF910895CB
:1000F0008BE0809381008DE790E09093890080935E
:10010000880082E080936F00109285001092840036
:100110008091000190910101A0910201B091030131
:100120008093120190931301A0931401B0931501D1
:100130008FB780688FBF089510928100089581E085
:1001400080931601089580911C0190911D018130CA
:10015000910571F030F08230910589F00397B1F08C
:100160001BC081E090E090931D0180931C0114C09E
:1001700082E090E090931D0180931C010DC083E00C
:1001800090E090931D0180931C0106C081E090E0F7
:1001900090931D0180931C0180911C0190911D0181
:1001A0008230910549F08330910551F0019759F45F
:1001B00081E080931901089582E0809319010895E8
:1001C00084E080931901089580911A0190911B0198
:1001D0008130910559F018F0029779F014C081E050
:1001E00090E090931B0180931A010DC082E090E093
:1001F00090931B0180931A0106C081E090E09093D8
:100200001B0180931A0180911A0190911B0181308A
:10021000910519F0029729F0089588E080931E0156
:10022000089510921E010895809117019091180170
:10023000009719F0019741F0089581E090E09093C4
:10024000180180931701089590911E018091190162
:10025000892B85B981E090E0909318018093170174
:1002600008951F920F920FB60F9211240BB60F92A2
:100270002F933F934F935F936F937F938F939F93AE
:10028000AF93BF93EF93FF9380911201909113016D
:10029000A0911401B09115010197A109B1098093B2
:1002A000120190931301A0931401B0931501892BAF
:1002B0008A2B8B2B91F40E949F00809100019091DA
:1002C0000101A0910201B09103018093120190936A
:1002D0001301A0931401B0931501FF91EF91BF9109
:1002E000AF919F918F917F916F915F914F913F91CE
:1002F0002F910F900BBE0F900FBE0F901F9018956F
:1003000060930001709301018093020190930301B7
:10031000609312017093130180931401909315015F
:1003200008958FEF84B915B864E670E080E090E03E
:100330000E9480010E94780010921D0110921C0101
:1003400010921B0110921A010F2EF8EE8F2EF3E07F
:100350009F2EA12CB12CF02D0F2EFCE2CF2EDD24F0
:10036000D394E12CF12CF02D8CE2C81681E0D80654
:10037000E104F10428F00E94A300C12CD12C7601E5
:1003800088EE881683E09806A104B10428F00E9444
:10039000E400812C912C54010E94140180911601DB
:1003A0008823E1F31092160184E6C80ED11CE11CEB
:1003B000F11C84E6880E911CA11CB11CD5CFF894C9
:0203C000FFCF6D
:1003C20001000000000000020000000067000000C1
:0203D200000029
:00000001FF
